:100000000C9435010C9466010C9466010C94660105
:100010000C9466010C9466010C9466010C946601C4
:100020000C9466010C9466010C9466010C946601B4
:100030000C9466010C9466010C9466010C946601A4
:100040000C9466010C9466010C9466010C94660194
:100050000C9466010C9466010C9466010C94DC030C
:100060000C9466010C9450040C9426040C946601C4
:100070000C9466010C9466010C9466010C94660164
:100080000C9466010C9466010C9466010C94660154
:100090000C9466010C9466010C9466010C94660144
:1000A0000C9466010C9466010C9466010C94660134
:1000B0000C9466010C9466010C9466010C94660124
:1000C0000C9466010C9466010C9466010C94660114
:1000D0000C9466010C9466010C9466010C94660104
:1000E0000C9466010C942D030C9498010C94E0017F
:1000F0000C944A020C94CE010C94E4010C94770207
:100100000C94AF010C9486020C94D2010C94D6018D
:100110000C94BB010C949D010C94A8020C94EA0170
:100120000C94C8010C94B3010C9410050C94DC01E0
:100130000C949A020C94E0020C94C4010C94BE013D
:100140000C94EE010C94B70100002000230026005F
:1001500029002C002F0032000001000003010601DD
:10016000090100002100240027002A002D00300092
:10017000330001010000040107010A010000220010
:10018000250028002B002E00310034000201000061
:10019000050108010B010505050507050808080804
:1001A000020202020A0A080804040404010101010F
:1001B000010101010303030303030303040707070A
:1001C0000C0C0C0C0C0C0C0C0202020206060606AF
:1001D000060606060B0B0B0B0B0B0B0B010210207C
:1001E000200808102040102040800201020108046D
:1001F0000201010204081020408080402010080401
:100200000201800402018040201008040201080459
:10021000020101020408102040800102040810209D
:10022000408000000A0B02090C0D0E0807030401B0
:1002300000000000000000000000000000000000BE
:10024000000000000000000000000000000012118B
:10025000100000000000000000000000000000008E
:100260000000000000000000100511241FBECFEFA9
:10027000D1E2DEBFCDBF00E00CBF12E0A0E0B2E0F3
:10028000E2E1F3E100E00BBF02C007900D92AC3257
:10029000B107D9F722E0ACE2B2E001C01D92A63F5F
:1002A000B207E1F711E0C5E3D1E000E006C0219715
:1002B0000109802FFE010E94B507C433D10780E0F9
:1002C0000807A9F70E9464050C9487090C940000A4
:1002D000282F30E0F901EE5DFD4F9491F901E452D1
:1002E000FE4F44912A563E4FF9012491222309F4EE
:1002F00035C0992311F191509231F8F4E92FF0E0D3
:100300008827EA57FE4F8F4F0C94B507B701BB0102
:100310009801AF01B3019D01BE01C401C801CE0126
:10032000D201D601DC01E0019D01E401EA01EE0108
:10033000809180008F7780938000E22FF0E0EE0FB5
:10034000FF1FE458FE4FA591B4918FB7F894EC913C
:10035000611148C040954E234C938FBF0895809102
:1003600080008F7DE8CF80918000877FE4CF84B5C7
:100370008F7784BDE2CF84B58F7DFBCF8091B000B5
:100380008F778093B000D9CF8091B0008F7DF9CF67
:10039000809190008F7780939000CFCF80919000D4
:1003A0008F7DF9CF80919000877FF5CF8091A0005D
:1003B0008F778093A000C1CF8091A0008F7DF9CF6F
:1003C0008091A000877FF5CF809120018F77809367
:1003D0002001B3CF809120018F7DF9CF8091200142
:1003E000877FF5CF4E2BB8CFCF93DF9390E0FC0102
:1003F000E452FE4F24918A569E4FFC01849188233B
:10040000D1F090E0880F991FFC01EE59FE4FA591A5
:10041000B491FC01E458FE4FC591D49161110EC016
:100420009FB7F8948C91E22FE0958E238C932881CE
:10043000E223E8839FBFDF91CF9108958FB7F894AF
:10044000EC91E22BEC938FBFF6CF3FB7F8948091FD
:10045000350290913602A0913702B091380226B54C
:10046000A89B05C02F3F19F00196A11DB11D3FBFEC
:10047000BA2FA92F982F8827BC01CD01620F711DBB
:10048000811D911D42E0660F771F881F991F4A95B5
:10049000D1F70895AF92BF92CF92DF92EF92FF9281
:1004A0000F931F93CF93DF936C017B018B01040F9C
:1004B000151FEB015E01AE18BF08C017D10759F038
:1004C0006991D601ED91FC910190F081E02DC6017A
:1004D0001995892B79F7C501DF91CF911F910F9164
:1004E000FF90EF90DF90CF90BF90AF900895FC0108
:1004F000538D448D252F30E0842F90E0821B930B89
:10050000541710F0CF96089501970895FC01918D2E
:10051000828D981761F0A28DAE0FBF2FB11D5D9631
:100520008C91928D9F5F9F73928F90E008958FEFD3
:100530009FEF0895FC01918D828D981731F0828D87
:10054000E80FF11D858D90E008958FEF9FEF0895DE
:10055000FC01918D228D892F90E0805C9F4F821B42
:1005600091098F739927089589E392E00E94A80268
:1005700021E0892B09F420E0822F0895FC01A48D4D
:10058000A80FB92FB11DA35ABF4F2C91848D90E0B5
:1005900001968F739927848FA689B7892C93A08998
:1005A000B1898C91837080648C93938D848D981322
:1005B00006C00288F389E02D80818F7D80830895B5
:1005C000EF92FF920F931F93CF93DF93EC0181E0A3
:1005D000888F9B8D8C8D98131AC0E889F98980814A
:1005E00085FF15C09FB7F894EE89FF896083E8897D
:1005F000F98980818370806480839FBF81E090E06F
:10060000DF91CF911F910F91FF90EF900895F62EFB
:100610000B8D10E00F5F1F4F0F731127E02E8C8D95
:100620008E110CC00FB607FCFACFE889F9898081DA
:1006300085FFF5CFCE010E94BE02F1CFEB8DEC0F0E
:10064000FD2FF11DE35AFF4FF0829FB7F8940B8FF7
:10065000EA89FB8980818062CFCFCF93DF93EC0161
:10066000888D8823B9F0AA89BB89E889F9898C919A
:1006700085FD03C0808186FD0DC00FB607FCF7CF56
:100680008C9185FFF2CF808185FFEDCFCE010E9456
:10069000BE02E9CFDF91CF91089580E090E0892BF1
:1006A00029F00E94B40281110E94000080E090E0D5
:1006B000892B49F080E090E0892B29F00E9400000E
:1006C00081110E94000080E090E0892B49F080E0D9
:1006D00090E0892B29F00E94000081110E94000007
:1006E00080E090E0892B49F080E090E0892B29F0B0
:1006F0000E94000081110C9400000895CF93DF93B5
:10070000EC0160E08A810E94680160E08C81DF91E9
:10071000CF910C946801FC0101900020E9F731971A
:10072000AF01481B590BBC0189E392E00C944A02CB
:100730008F929F92AF92BF920F931F93CF93DF93AD
:10074000CDB7DEB7A1970FB6F894DEBF0FBECDBF11
:1007500019A2423008F44AE08E010F5D1F4F842E2B
:10076000912CB12CA12CA50194010E949307E62F96
:10077000B901CA01EA30F4F4E05DD801EE938D01CD
:10078000232B242B252B79F790E080E0109719F08C
:10079000CD010E948B03A1960FB6F894DEBF0FBE69
:1007A000CDBFDF91CF911F910F91BF90AF909F90E0
:1007B0008F900895E95CE1CF1F920F920FB60F92D0
:1007C00011242F933F938F939F93AF93BF93809167
:1007D000310290913202A0913302B09134023091F3
:1007E000300223E0230F2D3758F50196A11DB11DCE
:1007F000209330028093310290933202A09333020F
:10080000B09334028091350290913602A091370264
:10081000B09138020196A11DB11D809335029093CD
:100820003602A0933702B0933802BF91AF919F91E7
:100830008F913F912F910F900FBE0F901F901895A1
:1008400026E8230F0296A11DB11DD2CF1F920F9251
:100850000FB60F9211240BB60F922F933F934F9325
:100860005F936F937F938F939F93AF93BF93EF9318
:10087000FF9389E392E00E94BE02FF91EF91BF9146
:10088000AF919F918F917F916F915F914F913F9128
:100890002F910F900BBE0F900FBE0F901F901895C9
:1008A0001F920F920FB60F9211240BB60F922F9337
:1008B0008F939F93EF93FF93E0914902F0914A0247
:1008C0008081E0914F02F091500282FD1DC0908125
:1008D000809152028F5F8F7320915302821741F0F3
:1008E000E0915202F0E0E75CFD4F958F8093520259
:1008F000FF91EF919F918F912F910F900BBE0F90D1
:100900000FBE0F901F9018958081F2CFCF92DF928B
:10091000EF92FF920F931F93E82FF92F05C001501C
:1009200011092109310961F1908196239417B9F3D6
:1009300005C0015011092109310911F19081962357
:100940009413F7CFC12CD12CE12CF12C0AC08FEFDE
:10095000C81AD80AE80AF80A0C151D052E053F0525
:1009600079F080818623841791F36C2D7D2D8E2D57
:100970009F2D1F910F91FF90EF90DF90CF900895E2
:1009800060E070E080E090E01F910F91FF90EF90A9
:10099000DF90CF900895AF92BF92DF92EF92FF92D7
:1009A0000F931F93CF93DF9300D000D0CDB7DEB766
:1009B0008C01FC01718360835383428335832483DC
:1009C0007A8369835C834B833E832D83CE010196BA
:1009D0007C015E0197E0A90EB11CF701D08060E0B8
:1009E0008D2D0E94680160E08D2D0E94F401F2E0DF
:1009F000EF0EF11CEA14FB0481F7F801178216824E
:100A000026960FB6F894DEBF0FBECDBFDF91CF9113
:100A10001F910F91FF90EF90DF90BF90AF900895DE
:100A2000E9E3F2E01382128288EE93E0A0E0B0E006
:100A300084839583A683B78384E092E09183808347
:100A400085EC90E09587848784EC90E09787868793
:100A500080EC90E0918B808B81EC90E0938B828B8B
:100A600082EC90E0958B848B86EC90E0978B868B64
:100A7000118E128E138E148E2FE130E041E250E081
:100A80006DE170E08EEE92E00E94CB0429E130E04F
:100A90004BE150E067E170E086EE92E00E94CB040B
:100AA0002EE130E040E250E06CE170E08EED92E04B
:100AB0000E94CB0428E130E04AE150E066E170E0BA
:100AC00086ED92E00C94CB04789484B5826084BD6A
:100AD00084B5816084BD85B5826085BD85B5816042
:100AE00085BD80916E00816080936E0010928100C0
:100AF000809181008260809381008091810081607B
:100B0000809381008091800081608093800080913B
:100B1000B10084608093B1008091B00081608093C7
:100B2000B00080919100826080939100809191004B
:100B3000816080939100809190008160809390000B
:100B40008091A10082608093A1008091A1008160CA
:100B50008093A1008091A00081608093A00080918B
:100B60002101826080932101809121018160809325
:100B700021018091200181608093200180917A0081
:100B8000846080937A0080917A00826080937A00FA
:100B900080917A00816080937A0080917A008068E9
:100BA00080937A001092C10061E083E00E94F4011A
:100BB00060E082E00E94F401E0914902F0914A0273
:100BC00082E08083E0914502F09146021082E0913C
:100BD0004702F09148028FEC808310925102E0911D
:100BE0004D02F0914E0286E08083E0914B02F0913D
:100BF0004C02808180618083E0914B02F0914C0235
:100C0000808188608083E0914B02F0914C0280816A
:100C100080688083E0914B02F0914C0280818F7D4F
:100C2000808323E0A22EB12C33E2832E912C48E95D
:100C3000242E41E0342EC1E0D0E060E083E00E9449
:100C40006801C5010197F1F761E083E00E94680146
:100C5000C4010197F1F760E083E00E946801EEEDC6
:100C6000F1E06491F1018491E82FF0E0EE0FFF1FB5
:100C7000E85BFE4F8591949100E412E42FE030E0B0
:100C8000462F0E948604611571058105910529F0A2
:100C90006F5F7F4F8F4F9F4F9F700E945E0828E2CB
:100CA0003EE74CE05DE30E94150920E030E040E0C3
:100CB0005FE30E94150960932C0270932D028093CC
:100CC0002E0290932F0282E192E00E948B03C0904B
:100CD0002C02D0902D02E0902E02F0902F02A7015E
:100CE0009601C701B6010E948209882309F478C0E1
:100CF0008DE192E00E948B0389E292E00E948B03D7
:100D000020E030E040EF51E460912C0270912D0220
:100D100080912E0290912F020E94100918160CF05B
:100D2000F1C061E08091F0020E94680160E0809172
:100D3000F2020E946801D093F502C093F40261E0D0
:100D40008091E8020E94680160E08091EA020E94BE
:100D50006801D093ED02C093EC0260E08091E00264
:100D60000E94680161E08091E2020E946801109295
:100D7000E5021092E40260E08091D8020E946801CE
:100D800061E08091DA020E9468011092DD02109207
:100D9000DC020E9425026B017C018AE0482E512C66
:100DA000612C712C0E9425026C197D098E099F0906
:100DB000683E734081059105A8F3F1E04F1A510890
:100DC0006108710828EEC20E23E0D21EE11CF11C5E
:100DD000411451046104710429F70E944D032DCF81
:100DE00026013701E89477F82FEF3FEF4FE75FE7F1
:100DF000C301B2010E94820981110DC02FEF3FEFA4
:100E00004FE75FE7C301B2010E942A0818161CF4DD
:100E100081E292E06FCF2FEF3FEF4FE75FE4C70132
:100E2000B6010E94100918161CF485E292E062CF08
:100E30002FEF3FEF4FE75FECC701B6010E942A0892
:100E400087FDF3CF20E030E0A901C701B6010E9481
:100E50002A0887FF09C06DE289E392E00E94E00260
:100E6000F7FAF094F7F8F0942AE037ED43EA5BE301
:100E7000C701B6010E94BE072B013C010E942F084A
:100E80006B017C010E945E089B01AC01C301B201B1
:100E90000E94BD072B013C014AE0C701B6010E9438
:100EA00098036EE289E392E00E94E00220E030E0E5
:100EB00040E251E4C301B2010E9415092B013C013B
:100EC0000E942F086B01F12CE12C4AE0C701B6010A
:100ED0000E949803C701B6010E945E089B01AC0105
:100EE000C301B2010E94BD0720E030E040E251E4BE
:100EF0000E9415090E942F0890E080E04AE00E94BD
:100F00009803FACE8EEE92E00E947E0386EE92E087
:100F10000E947E038EED92E00E947E0386ED92E0B9
:100F20000E947E0336CFA1E21A2EAA1BBB1BFD0135
:100F30000DC0AA1FBB1FEE1FFF1FA217B307E407B8
:100F4000F50720F0A21BB30BE40BF50B661F771F10
:100F5000881F991F1A9469F76095709580959095F0
:100F60009B01AC01BD01CF010895EE0FFF1F881F4B
:100F70008BBF0790F691E02D19945058BB27AA27F4
:100F80000E94D5070C94D6080E94C80838F00E9429
:100F9000CF0820F039F49F3F19F426F40C94C508CB
:100FA0000EF4E095E7FB0C94BF08E92F0E94E708D8
:100FB00058F3BA17620773078407950720F079F48E
:100FC000A6F50C9409090EF4E0950B2EBA2FA02D6E
:100FD0000B01B90190010C01CA01A0011124FF27E6
:100FE000591B99F0593F50F4503E68F11A16F040E1
:100FF000A22F232F342F4427585FF3CF46953795E0
:101000002795A795F0405395C9F77EF41F16BA0BA4
:10101000620B730B840BBAF09150A1F0FF0FBB1F52
:10102000661F771F881FC2F70EC0BA0F621F731F9B
:10103000841F48F4879577956795B795F7959E3FF8
:1010400008F0B0CF9395880F08F09927EE0F979589
:10105000879508950E949B0808F481E008950E94F6
:10106000EF0888F09F5798F0B92F9927B751B0F043
:10107000E1F0660F771F881F991F1AF0BA95C9F71C
:1010800014C0B13091F00E940909B1E008950C94A8
:101090000909672F782F8827B85F39F0B93FCCF35B
:1010A000869577956795B395D9F73EF49095809599
:1010B000709561957F4F8F4F9F4F0895E89409C0B9
:1010C00097FB3EF490958095709561957F4F8F4F7B
:1010D0009F4F9923A9F0F92F96E9BB279395F69591
:1010E000879577956795B795F111F8CFFAF4BB0F0F
:1010F00011F460FF1BC06F5F7F4F8F4F9F4F16C073
:10110000882311F096E911C0772321F09EE8872FFC
:10111000762F05C0662371F096E8862F70E060E0B8
:101120002AF09A95660F771F881FDAF7880F969531
:10113000879597F90895990F0008550FAA0BE0E8D5
:10114000FEEF16161706E807F907C0F01216130689
:10115000E407F50798F0621B730B840B950B39F4C9
:101160000A2661F0232B242B252B21F408950A262F
:1011700009F4A140A6958FEF811D811D089597F96F
:101180009F6780E870E060E008959FEF80EC08952D
:1011900000240A9416161706180609060895002456
:1011A0000A9412161306140605060895092E0394D0
:1011B000000C11F4882352F0BB0F40F4BF2B11F444
:1011C00060FF04C06F5F7F4F8F4F9F4F089557FDA3
:1011D0009058440F551F59F05F3F71F04795880FA5
:1011E00097FB991F61F09F3F79F08795089512163C
:1011F00013061406551FF2CF4695F1DF08C01616E8
:1012000017061806991FF1CF869571056105089498
:101210000895E894BB2766277727CB0197F90895AF
:101220000E949B0808F48FEF08950E9428090C94EF
:10123000D6080E94C80838F00E94CF0820F09523F5
:1012400011F00C94BF080C94C50811240C940A09E1
:101250000E94E70870F3959FC1F3950F50E0551F6A
:10126000629FF001729FBB27F00DB11D639FAA27FB
:10127000F00DB11DAA1F649F6627B00DA11D661F4A
:10128000829F2227B00DA11D621F739FB00DA11D6B
:10129000621F839FA00D611D221F749F3327A00D25
:1012A000611D231F849F600D211D822F762F6A2FC1
:1012B00011249F5750409AF0F1F088234AF0EE0F26
:1012C000FF1FBB1F661F771F881F91505040A9F753
:1012D0009E3F510580F00C94BF080C940A095F3FB3
:1012E000E4F3983ED4F3869577956795B795F7958F
:1012F000E7959F5FC1F7FE2B880F911D9695879507
:1013000097F908950E949B08880B990B0895F8940B
:02131000FFCF0D
:1013120000000000E0024A0277022D03A8028602C2
:101322009A0244697374616E63653A20006E616E5D
:0C13320000696E66006F7666000D0A0010
:00000001FF
